:020000040800F2
:1000000038040020D500000819050008C3040008C2
:1000100000000000000000000000000000000000E0
:10002000000000000000000000000000DD060008E5
:1000300000000000000000001B0500087907000810
:100040000501000805010008050100080501000878
:100050000501000805010008050100080501000868
:100060000501000805010008050100080501000858
:100070000501000805010008050100080501000848
:100080000501000805010008000000000501000846
:100090000501000805010008050100080501000828
:1000A0000501000805010008050100080501000818
:1000B0000501000800000000050100080000000024
:1000C0000348854600F05AF800480047DD0900085B
:1000D000380400200C4880F308880C480168090E99
:1000E0000B4A914205D10B480B4901600B480C4962
:1000F00001600C4880470C480047FEE7FEE7FEE73A
:10010000FEE7FEE7FEE700003804002004000000E0
:100110001F00000018100240010000000000014014
:10012000000000009D070008C100000830B50B4624
:10013000014600202022012409E00D46D5409D42C1
:1001400005D31D469540491B254695404019154647
:10015000521E002DF1DC30BDD2B201E00270401C15
:10016000491EFBD270470022F6E710B513460A4637
:1001700004461946FFF7F0FF204610BD064C012546
:10018000064E05E0E36807CC2B430C3C984710343F
:10019000B442F7D3FFF798FF980A0008B80A00089E
:1001A00030B50346002007240EE01A7850400022A4
:1001B0005B1C050602D54000604000E04000521C78
:1001C000D2B2C0B2082AF4D3491EEED230BD00002C
:1001D000F0B5FFB0012684B07602314602A8FFF7E1
:1001E000C2FF264F3D46384600F088FB0446000417
:1001F0001FD4002C3FD0B44204D95F21284600F020
:10020000A1FBEFE72F46284600F078FB0190384627
:1002100000F074FBC1B2019800910843000408D4B7
:1002200000250FE0384600F069FB0121C903884230
:1002300004D10020C0437FB004B0F0BD02A94855EE
:100240006D1CEDB2A542EDD3214602A8FFF7A8FF31
:100250000099814201D00F2108E00198084940022D
:100260004018224602A900F06AF83C21384600F006
:1002700069FB002CB6D10020DDE70000003801400A
:10028000000C00080149C8607047000000200240CF
:1002900008490420CA68D20701D001207047CA6803
:1002A000D20601D502207047C9684907FBD5032053
:1002B000704700000020024002480169802211437B
:1002C0000161704700200240F0B50B2706463F044D
:1002D0000D46384600F022F804280CD1064C20695F
:1002E0000121084320613580384600F017F8216964
:1002F000490849002161F0BD00200240044801691D
:10030000090603D503494160034941607047000075
:100310000020024023016745AB89EFCD00B50346BD
:10032000FFF7B6FF02E0FFF7B3FF5B1E012803D023
:10033000002B00D1052000BD002BF4D1FAE7F8B561
:1003400015460E460746FFF7D9FF3420FFF79AFF00
:1003500000240CE0315D601CA84203D230194078C3
:10036000000201433819FFF7AFFFA41CA4B2AC424E
:10037000F0D3FFF7A1FFF8BD1CB5032040020090A9
:10038000022168460171032141710021817101211F
:10039000C1710924E4066946204600F043F80122B1
:1003A0000921204600F076F801220A21204600F0BB
:1003B00071F81CBD092110B5C906884202D101217E
:1003C0004C0404E01249884209D10121040220466C
:1003D00000F0B0F80021204600F0ACF810BD0D4947
:1003E000884202D101210402F1E70B49884202D17F
:1003F00001210C05EBE70949884202D101214402A1
:10040000E5E707498842E9D101218C05DFE70000D3
:100410000004004800080048000C00480010004894
:1004200000140048F0B50022012423460D689340D3
:100430001D409D422AD10D79012D01D0022D12D1EE
:10044000876855000326AE40B74387604E79AE40BB
:1004500085682E43866085889D43858085888B7955
:1004600093401D438580066855000323AB409E439F
:1004700006600E790768AE403E430660C6689E433C
:10048000C660CB79AB40C5682B43C360521C102AB1
:10049000CBD3F0BD4B07DB0E9A40C90810B58900DD
:1004A0000818016A0F249C40A1430162016A1143AC
:1004B000016210BD0246128A00200A4200D00120CB
:1004C0007047FEE77CB50121880400F027F801247D
:1004D0002403002069460094087101208871C871C6
:1004E0000320074D48712846FFF79CFF2146284608
:1004F000FFF7E0FF002801D000207CBD01207CBD7B
:100500000004004810B500F03FF9FFF735FF00F098
:1005100075F900F09BFA10BD70477047044A002936
:10052000516901D0014300E08143516170470000EF
:1005300000100240044A0029916A01D0014300E002
:10054000814391627047000000100240044A002974
:10055000916901D0014300E081439161704700003F
:1005600000100240F8B5564D0446686800210C2280
:10057000544E104005D0042803D0082803D00C287E
:100580001AD026601AE06968686803228902D203DB
:100590000F0F1040BF1C00280AD0E86A0107090F9E
:1005A0003046491CFFF7C2FD78430146216005E053
:1005B000454839464143F9E7444820606868444F5C
:1005C0000006000F3B5C20680246DA4062606B6800
:1005D0005B055B0FFB5CDA40A2602B6BDB0501D493
:1005E0003C4B05E06B685B0401D4530800E09308C2
:1005F000E3602B6B5F06384B03D4374F123727610C
:1006000000E023612F6BFF0601D4666100E06061AA
:100610002F6BBF070ED02F6BBF07BF0F012F0BD063
:100620002F6BBF07BF0F022F08D02F6BFF43BF07F1
:1006300006D006E0A26104E0A06102E0A36100E050
:10064000A6612F6BBF03BF0F0FD02F6BBF03BF0F70
:10065000012F0CD02F6BBF03BF0F022F09D02F6BC0
:10066000BF03BF0F032F06D006E0E26104E0E061A4
:1006700002E0E36100E0E6612F6B3F03BF0F0FD0A4
:100680002A6B1203920F012A0CD0286B0003800FF3
:10069000022809D0286B0003800F032806D006E04B
:1006A000226204E0206202E0236200E02662286BFE
:1006B000000602D405486062F8BD6162F8BD000022
:1006C0000010024000127A0000093D00006CDC02BC
:1006D00020000020809FD5000080000070470000AF
:1006E0001CB50021224801910091026801231B04DE
:1006F0001A4302605B000522120304681C40009448
:10070000019C641C0194009C002C02D1019C944229
:10071000F3D10268920328D501210091154A1121D5
:100720001160416841604168416041687F22D203A5
:1007300091434160416811221204114341600168F4
:10074000012212061143016001688901FCD541684C
:100750008908890041604168022211434160416873
:100760000907890F0229FAD11CBD00911CBD0000A8
:10077000001002400020024002480168491C01604C
:10078000704700001C00002010B501214804FFF74D
:10079000C5FE01218803FFF7D9FE10BD10B514482E
:1007A00001680122114301604168124A1140416011
:1007B0000168114A114001600168012292049143CD
:1007C000016041683F22120491434160C16A0909F6
:1007D0000901C162016BFF22543291430163416BF5
:1007E00049084900416300218160FFF779FF10BD8E
:1007F000001002400CB8FFF8FFFFF6FE10B586B0FF
:10080000E1204002009000200190029003900590AA
:100810000C20064C04906946204600F01BF801218C
:10082000204600F005F806B010BD00000038014079
:100830000029016802D00122114301E04908490062
:10084000016070470246D26900200A4200D00120B0
:100850007047000030B5044600688BB00D46400874
:10086000400020606068032109038843A9680143B0
:10087000616020681C49EA680840696811432A6978
:10088000024311432160A06803210902884369697A
:100890000143A1606846FFF765FE1448844201D118
:1008A00006980AE01248844201D1079805E01148F1
:1008B000844201D1089800E002982168090429685F
:1008C00000D54000FFF732FC2A6852088A4200D85F
:1008D000401C2168090404D50107074A490F10404C
:1008E0000843A0810BB030BDF3E9FFFF00380140A1
:1008F0000044004000480040F0FF0000F8B5104CF4
:100900000746206800262168801C884200D2022603
:1009100020688519AD1C20688019854205D92021E1
:100920003846FFF78FFF0028F5D0206880198542F0
:1009300002D80120C003F8BDB88CC005C00DF8BDB9
:100940001C00002070B50C46054640212846FFF7E4
:1009500079FF0028F9D02146284600F001F870BD43
:10096000C905C90D0185704710B5024A024900F05A
:1009700014F810BDB90900083000002002E008C8D2
:10098000121F08C1002AFAD170477047002001E009
:1009900001C1121F002AFBD17047F8B516460F4659
:1009A0000446002503E03946B047641C6D1C2078DE
:1009B0000028F8D12846F8BD70B5074D0446C1B2ED
:1009C0002846FFF7CDFF40212846FFF73BFF0028D0
:1009D000F9D0204670BD000000380140FFF772FDDD
:1009E00000280CD0FFF78EFD0FA0FFF7BDFFFFF72B
:1009F000EFFB401CFBD00FA0FFF7B6FF12E00F4C3F
:100A000020680F4908400121490788420AD10D4852
:100A1000FFF7D0FC60680C4948600860216881F3EA
:100A200008888047FEE700004941502076312E308B
:100A30000D0A0000446F6E652E0D0A00000C0008C0
:100A40000000FE2F000400480000002070B50E4892
:100A50007D21C9000068FFF769FB0C490122401E97
:100A6000884210D80A4948610A480723C469240209
:100A7000240A4D042C43C461002088610B6108697D
:100A80001043086170BDFEE708000020FFFFFF0073
:100A900000E000E004ED00E0B80A000800000020DB
:100AA000340000007C090008EC0A00083400002033
:100AB000040400008C090008000000000000000091
:100AC000006CDC02000000000000000001020304D2
:100AD00006070809000000000000000001020304EE
:0C0AE000010203040607080900000000E2
:04000005080000C12E
:00000001FF
